{
  "_format": "hh-sol-artifact-1",
  "contractName": "AssetOracleToken",
  "sourceName": "contracts/AssetOracleToken.sol",
  "abi": [
    {
      "inputs": [
        {
          "internalType": "string",
          "name": "name",
          "type": "string"
        },
        {
          "internalType": "string",
          "name": "symbol",
          "type": "string"
        }
      ],
      "stateMutability": "nonpayable",
      "type": "constructor"
    },
    {
      "inputs": [
        {
          "internalType": "address",
          "name": "spender",
          "type": "address"
        },
        {
          "internalType": "uint256",
          "name": "allowance",
          "type": "uint256"
        },
        {
          "internalType": "uint256",
          "name": "needed",
          "type": "uint256"
        }
      ],
      "name": "ERC20InsufficientAllowance",
      "type": "error"
    },
    {
      "inputs": [
        {
          "internalType": "address",
          "name": "sender",
          "type": "address"
        },
        {
          "internalType": "uint256",
          "name": "balance",
          "type": "uint256"
        },
        {
          "internalType": "uint256",
          "name": "needed",
          "type": "uint256"
        }
      ],
      "name": "ERC20InsufficientBalance",
      "type": "error"
    },
    {
      "inputs": [
        {
          "internalType": "address",
          "name": "approver",
          "type": "address"
        }
      ],
      "name": "ERC20InvalidApprover",
      "type": "error"
    },
    {
      "inputs": [
        {
          "internalType": "address",
          "name": "receiver",
          "type": "address"
        }
      ],
      "name": "ERC20InvalidReceiver",
      "type": "error"
    },
    {
      "inputs": [
        {
          "internalType": "address",
          "name": "sender",
          "type": "address"
        }
      ],
      "name": "ERC20InvalidSender",
      "type": "error"
    },
    {
      "inputs": [
        {
          "internalType": "address",
          "name": "spender",
          "type": "address"
        }
      ],
      "name": "ERC20InvalidSpender",
      "type": "error"
    },
    {
      "inputs": [
        {
          "internalType": "address",
          "name": "owner",
          "type": "address"
        }
      ],
      "name": "OwnableInvalidOwner",
      "type": "error"
    },
    {
      "inputs": [
        {
          "internalType": "address",
          "name": "account",
          "type": "address"
        }
      ],
      "name": "OwnableUnauthorizedAccount",
      "type": "error"
    },
    {
      "anonymous": false,
      "inputs": [
        {
          "indexed": true,
          "internalType": "address",
          "name": "owner",
          "type": "address"
        },
        {
          "indexed": true,
          "internalType": "address",
          "name": "spender",
          "type": "address"
        },
        {
          "indexed": false,
          "internalType": "uint256",
          "name": "value",
          "type": "uint256"
        }
      ],
      "name": "Approval",
      "type": "event"
    },
    {
      "anonymous": false,
      "inputs": [
        {
          "indexed": true,
          "internalType": "address",
          "name": "previousOwner",
          "type": "address"
        },
        {
          "indexed": true,
          "internalType": "address",
          "name": "newOwner",
          "type": "address"
        }
      ],
      "name": "OwnershipTransferred",
      "type": "event"
    },
    {
      "anonymous": false,
      "inputs": [
        {
          "indexed": true,
          "internalType": "address",
          "name": "from",
          "type": "address"
        },
        {
          "indexed": true,
          "internalType": "address",
          "name": "to",
          "type": "address"
        },
        {
          "indexed": false,
          "internalType": "uint256",
          "name": "value",
          "type": "uint256"
        }
      ],
      "name": "Transfer",
      "type": "event"
    },
    {
      "inputs": [
        {
          "internalType": "address",
          "name": "owner",
          "type": "address"
        },
        {
          "internalType": "address",
          "name": "spender",
          "type": "address"
        }
      ],
      "name": "allowance",
      "outputs": [
        {
          "internalType": "uint256",
          "name": "",
          "type": "uint256"
        }
      ],
      "stateMutability": "view",
      "type": "function"
    },
    {
      "inputs": [
        {
          "internalType": "address",
          "name": "spender",
          "type": "address"
        },
        {
          "internalType": "uint256",
          "name": "value",
          "type": "uint256"
        }
      ],
      "name": "approve",
      "outputs": [
        {
          "internalType": "bool",
          "name": "",
          "type": "bool"
        }
      ],
      "stateMutability": "nonpayable",
      "type": "function"
    },
    {
      "inputs": [
        {
          "internalType": "address",
          "name": "account",
          "type": "address"
        }
      ],
      "name": "balanceOf",
      "outputs": [
        {
          "internalType": "uint256",
          "name": "",
          "type": "uint256"
        }
      ],
      "stateMutability": "view",
      "type": "function"
    },
    {
      "inputs": [],
      "name": "decimals",
      "outputs": [
        {
          "internalType": "uint8",
          "name": "",
          "type": "uint8"
        }
      ],
      "stateMutability": "view",
      "type": "function"
    },
    {
      "inputs": [
        {
          "internalType": "address",
          "name": "to",
          "type": "address"
        },
        {
          "internalType": "uint256",
          "name": "amount",
          "type": "uint256"
        }
      ],
      "name": "mintAssetToken",
      "outputs": [],
      "stateMutability": "nonpayable",
      "type": "function"
    },
    {
      "inputs": [],
      "name": "name",
      "outputs": [
        {
          "internalType": "string",
          "name": "",
          "type": "string"
        }
      ],
      "stateMutability": "view",
      "type": "function"
    },
    {
      "inputs": [],
      "name": "oracle",
      "outputs": [
        {
          "internalType": "address",
          "name": "",
          "type": "address"
        }
      ],
      "stateMutability": "view",
      "type": "function"
    },
    {
      "inputs": [],
      "name": "owner",
      "outputs": [
        {
          "internalType": "address",
          "name": "",
          "type": "address"
        }
      ],
      "stateMutability": "view",
      "type": "function"
    },
    {
      "inputs": [],
      "name": "renounceOwnership",
      "outputs": [],
      "stateMutability": "nonpayable",
      "type": "function"
    },
    {
      "inputs": [
        {
          "internalType": "address",
          "name": "newOracle",
          "type": "address"
        }
      ],
      "name": "setOracle",
      "outputs": [],
      "stateMutability": "nonpayable",
      "type": "function"
    },
    {
      "inputs": [],
      "name": "symbol",
      "outputs": [
        {
          "internalType": "string",
          "name": "",
          "type": "string"
        }
      ],
      "stateMutability": "view",
      "type": "function"
    },
    {
      "inputs": [],
      "name": "totalSupply",
      "outputs": [
        {
          "internalType": "uint256",
          "name": "",
          "type": "uint256"
        }
      ],
      "stateMutability": "view",
      "type": "function"
    },
    {
      "inputs": [
        {
          "internalType": "address",
          "name": "to",
          "type": "address"
        },
        {
          "internalType": "uint256",
          "name": "value",
          "type": "uint256"
        }
      ],
      "name": "transfer",
      "outputs": [
        {
          "internalType": "bool",
          "name": "",
          "type": "bool"
        }
      ],
      "stateMutability": "nonpayable",
      "type": "function"
    },
    {
      "inputs": [
        {
          "internalType": "address",
          "name": "from",
          "type": "address"
        },
        {
          "internalType": "address",
          "name": "to",
          "type": "address"
        },
        {
          "internalType": "uint256",
          "name": "value",
          "type": "uint256"
        }
      ],
      "name": "transferFrom",
      "outputs": [
        {
          "internalType": "bool",
          "name": "",
          "type": "bool"
        }
      ],
      "stateMutability": "nonpayable",
      "type": "function"
    },
    {
      "inputs": [
        {
          "internalType": "address",
          "name": "newOwner",
          "type": "address"
        }
      ],
      "name": "transferOwnership",
      "outputs": [],
      "stateMutability": "nonpayable",
      "type": "function"
    }
  ],
  "bytecode": "0x608060405234801561001057600080fd5b50604051611a93380380611a938339818101604052810190610032919061035c565b338282816003908161004491906105f5565b50806004908161005491906105f5565b505050600073ffffffffffffffffffffffffffffffffffffffff168173ffffffffffffffffffffffffffffffffffffffff16036100c95760006040517f1e4fbdf70000000000000000000000000000000000000000000000000000000081526004016100c09190610708565b60405180910390fd5b6100d88161012160201b60201c565b5033600660006101000a81548173ffffffffffffffffffffffffffffffffffffffff021916908373ffffffffffffffffffffffffffffffffffffffff1602179055505050610723565b6000600560009054906101000a900473ffffffffffffffffffffffffffffffffffffffff16905081600560006101000a81548173ffffffffffffffffffffffffffffffffffffffff021916908373ffffffffffffffffffffffffffffffffffffffff1602179055508173ffffffffffffffffffffffffffffffffffffffff168173ffffffffffffffffffffffffffffffffffffffff167f8be0079c531659141344cd1fd0a4f28419497f9722a3daafe3b4186f6b6457e060405160405180910390a35050565b6000604051905090565b600080fd5b600080fd5b600080fd5b600080fd5b6000601f19601f8301169050919050565b7f4e487b7100000000000000000000000000000000000000000000000000000000600052604160045260246000fd5b61024e82610205565b810181811067ffffffffffffffff8211171561026d5761026c610216565b5b80604052505050565b60006102806101e7565b905061028c8282610245565b919050565b600067ffffffffffffffff8211156102ac576102ab610216565b5b6102b582610205565b9050602081019050919050565b60005b838110156102e05780820151818401526020810190506102c5565b60008484015250505050565b60006102ff6102fa84610291565b610276565b90508281526020810184848401111561031b5761031a610200565b5b6103268482856102c2565b509392505050565b600082601f830112610343576103426101fb565b5b81516103538482602086016102ec565b91505092915050565b60008060408385031215610373576103726101f1565b5b600083015167ffffffffffffffff811115610391576103906101f6565b5b61039d8582860161032e565b925050602083015167ffffffffffffffff8111156103be576103bd6101f6565b5b6103ca8582860161032e565b9150509250929050565b600081519050919050565b7f4e487b7100000000000000000000000000000000000000000000000000000000600052602260045260246000fd5b6000600282049050600182168061042657607f821691505b602082108103610439576104386103df565b5b50919050565b60008190508160005260206000209050919050565b60006020601f8301049050919050565b600082821b905092915050565b6000600883026104a17fffffffffffffffffffffffffffffffffffffffffffffffffffffffffffffffff82610464565b6104ab8683610464565b95508019841693508086168417925050509392505050565b6000819050919050565b6000819050919050565b60006104f26104ed6104e8846104c3565b6104cd565b6104c3565b9050919050565b6000819050919050565b61050c836104d7565b610520610518826104f9565b848454610471565b825550505050565b600090565b610535610528565b610540818484610503565b505050565b5b818110156105645761055960008261052d565b600181019050610546565b5050565b601f8211156105a95761057a8161043f565b61058384610454565b81016020851015610592578190505b6105a661059e85610454565b830182610545565b50505b505050565b600082821c905092915050565b60006105cc600019846008026105ae565b1980831691505092915050565b60006105e583836105bb565b9150826002028217905092915050565b6105fe826103d4565b67ffffffffffffffff81111561061757610616610216565b5b610621825461040e565b61062c828285610568565b600060209050601f83116001811461065f576000841561064d578287015190505b61065785826105d9565b8655506106bf565b601f19841661066d8661043f565b60005b8281101561069557848901518255600182019150602085019450602081019050610670565b868310156106b257848901516106ae601f8916826105bb565b8355505b6001600288020188555050505b505050505050565b600073ffffffffffffffffffffffffffffffffffffffff82169050919050565b60006106f2826106c7565b9050919050565b610702816106e7565b82525050565b600060208201905061071d60008301846106f9565b92915050565b611361806107326000396000f3fe608060405234801561001057600080fd5b50600436106100f55760003560e01c80637adbf97311610097578063a9059cbb11610066578063a9059cbb14610264578063cc1e381814610294578063dd62ed3e146102b0578063f2fde38b146102e0576100f5565b80637adbf973146101ee5780637dc0d1d01461020a5780638da5cb5b1461022857806395d89b4114610246576100f5565b806323b872dd116100d357806323b872dd14610166578063313ce5671461019657806370a08231146101b4578063715018a6146101e4576100f5565b806306fdde03146100fa578063095ea7b31461011857806318160ddd14610148575b600080fd5b6101026102fc565b60405161010f9190610f49565b60405180910390f35b610132600480360381019061012d9190611004565b61038e565b60405161013f919061105f565b60405180910390f35b6101506103b1565b60405161015d9190611089565b60405180910390f35b610180600480360381019061017b91906110a4565b6103bb565b60405161018d919061105f565b60405180910390f35b61019e6103ea565b6040516101ab9190611113565b60405180910390f35b6101ce60048036038101906101c9919061112e565b6103f3565b6040516101db9190611089565b60405180910390f35b6101ec61043b565b005b6102086004803603810190610203919061112e565b61044f565b005b61021261049b565b60405161021f919061116a565b60405180910390f35b6102306104c1565b60405161023d919061116a565b60405180910390f35b61024e6104eb565b60405161025b9190610f49565b60405180910390f35b61027e60048036038101906102799190611004565b61057d565b60405161028b919061105f565b60405180910390f35b6102ae60048036038101906102a99190611004565b6105a0565b005b6102ca60048036038101906102c59190611185565b61063e565b6040516102d79190611089565b60405180910390f35b6102fa60048036038101906102f5919061112e565b6106c5565b005b60606003805461030b906111f4565b80601f0160208091040260200160405190810160405280929190818152602001828054610337906111f4565b80156103845780601f1061035957610100808354040283529160200191610384565b820191906000526020600020905b81548152906001019060200180831161036757829003601f168201915b5050505050905090565b60008061039961074b565b90506103a6818585610753565b600191505092915050565b6000600254905090565b6000806103c661074b565b90506103d3858285610765565b6103de8585856107fa565b60019150509392505050565b60006012905090565b60008060008373ffffffffffffffffffffffffffffffffffffffff1673ffffffffffffffffffffffffffffffffffffffff168152602001908152602001600020549050919050565b6104436108ee565b61044d6000610975565b565b6104576108ee565b80600660006101000a81548173ffffffffffffffffffffffffffffffffffffffff021916908373ffffffffffffffffffffffffffffffffffffffff16021790555050565b600660009054906101000a900473ffffffffffffffffffffffffffffffffffffffff1681565b6000600560009054906101000a900473ffffffffffffffffffffffffffffffffffffffff16905090565b6060600480546104fa906111f4565b80601f0160208091040260200160405190810160405280929190818152602001828054610526906111f4565b80156105735780601f1061054857610100808354040283529160200191610573565b820191906000526020600020905b81548152906001019060200180831161055657829003601f168201915b5050505050905090565b60008061058861074b565b90506105958185856107fa565b600191505092915050565b600660009054906101000a900473ffffffffffffffffffffffffffffffffffffffff1673ffffffffffffffffffffffffffffffffffffffff163373ffffffffffffffffffffffffffffffffffffffff1614610630576040517f08c379a000000000000000000000000000000000000000000000000000000000815260040161062790611271565b60405180910390fd5b61063a8282610a3b565b5050565b6000600160008473ffffffffffffffffffffffffffffffffffffffff1673ffffffffffffffffffffffffffffffffffffffff16815260200190815260200160002060008373ffffffffffffffffffffffffffffffffffffffff1673ffffffffffffffffffffffffffffffffffffffff16815260200190815260200160002054905092915050565b6106cd6108ee565b600073ffffffffffffffffffffffffffffffffffffffff168173ffffffffffffffffffffffffffffffffffffffff160361073f5760006040517f1e4fbdf7000000000000000000000000000000000000000000000000000000008152600401610736919061116a565b60405180910390fd5b61074881610975565b50565b600033905090565b6107608383836001610abd565b505050565b6000610771848461063e565b90507fffffffffffffffffffffffffffffffffffffffffffffffffffffffffffffffff8110156107f457818110156107e4578281836040517ffb8f41b20000000000000000000000000000000000000000000000000000000081526004016107db93929190611291565b60405180910390fd5b6107f384848484036000610abd565b5b50505050565b600073ffffffffffffffffffffffffffffffffffffffff168373ffffffffffffffffffffffffffffffffffffffff160361086c5760006040517f96c6fd1e000000000000000000000000000000000000000000000000000000008152600401610863919061116a565b60405180910390fd5b600073ffffffffffffffffffffffffffffffffffffffff168273ffffffffffffffffffffffffffffffffffffffff16036108de5760006040517fec442f050000000000000000000000000000000000000000000000000000000081526004016108d5919061116a565b60405180910390fd5b6108e9838383610c94565b505050565b6108f661074b565b73ffffffffffffffffffffffffffffffffffffffff166109146104c1565b73ffffffffffffffffffffffffffffffffffffffff16146109735761093761074b565b6040517f118cdaa700000000000000000000000000000000000000000000000000000000815260040161096a919061116a565b60405180910390fd5b565b6000600560009054906101000a900473ffffffffffffffffffffffffffffffffffffffff16905081600560006101000a81548173ffffffffffffffffffffffffffffffffffffffff021916908373ffffffffffffffffffffffffffffffffffffffff1602179055508173ffffffffffffffffffffffffffffffffffffffff168173ffffffffffffffffffffffffffffffffffffffff167f8be0079c531659141344cd1fd0a4f28419497f9722a3daafe3b4186f6b6457e060405160405180910390a35050565b600073ffffffffffffffffffffffffffffffffffffffff168273ffffffffffffffffffffffffffffffffffffffff1603610aad5760006040517fec442f05000000000000000000000000000000000000000000000000000000008152600401610aa4919061116a565b60405180910390fd5b610ab960008383610c94565b5050565b600073ffffffffffffffffffffffffffffffffffffffff168473ffffffffffffffffffffffffffffffffffffffff1603610b2f5760006040517fe602df05000000000000000000000000000000000000000000000000000000008152600401610b26919061116a565b60405180910390fd5b600073ffffffffffffffffffffffffffffffffffffffff168373ffffffffffffffffffffffffffffffffffffffff1603610ba15760006040517f94280d62000000000000000000000000000000000000000000000000000000008152600401610b98919061116a565b60405180910390fd5b81600160008673ffffffffffffffffffffffffffffffffffffffff1673ffffffffffffffffffffffffffffffffffffffff16815260200190815260200160002060008573ffffffffffffffffffffffffffffffffffffffff1673ffffffffffffffffffffffffffffffffffffffff168152602001908152602001600020819055508015610c8e578273ffffffffffffffffffffffffffffffffffffffff168473ffffffffffffffffffffffffffffffffffffffff167f8c5be1e5ebec7d5bd14f71427d1e84f3dd0314c0f7b2291e5b200ac8c7c3b92584604051610c859190611089565b60405180910390a35b50505050565b600073ffffffffffffffffffffffffffffffffffffffff168373ffffffffffffffffffffffffffffffffffffffff1603610ce6578060026000828254610cda91906112f7565b92505081905550610db9565b60008060008573ffffffffffffffffffffffffffffffffffffffff1673ffffffffffffffffffffffffffffffffffffffff16815260200190815260200160002054905081811015610d72578381836040517fe450d38c000000000000000000000000000000000000000000000000000000008152600401610d6993929190611291565b60405180910390fd5b8181036000808673ffffffffffffffffffffffffffffffffffffffff1673ffffffffffffffffffffffffffffffffffffffff16815260200190815260200160002081905550505b600073ffffffffffffffffffffffffffffffffffffffff168273ffffffffffffffffffffffffffffffffffffffff1603610e025780600260008282540392505081905550610e4f565b806000808473ffffffffffffffffffffffffffffffffffffffff1673ffffffffffffffffffffffffffffffffffffffff168152602001908152602001600020600082825401925050819055505b8173ffffffffffffffffffffffffffffffffffffffff168373ffffffffffffffffffffffffffffffffffffffff167fddf252ad1be2c89b69c2b068fc378daa952ba7f163c4a11628f55a4df523b3ef83604051610eac9190611089565b60405180910390a3505050565b600081519050919050565b600082825260208201905092915050565b60005b83811015610ef3578082015181840152602081019050610ed8565b60008484015250505050565b6000601f19601f8301169050919050565b6000610f1b82610eb9565b610f258185610ec4565b9350610f35818560208601610ed5565b610f3e81610eff565b840191505092915050565b60006020820190508181036000830152610f638184610f10565b905092915050565b600080fd5b600073ffffffffffffffffffffffffffffffffffffffff82169050919050565b6000610f9b82610f70565b9050919050565b610fab81610f90565b8114610fb657600080fd5b50565b600081359050610fc881610fa2565b92915050565b6000819050919050565b610fe181610fce565b8114610fec57600080fd5b50565b600081359050610ffe81610fd8565b92915050565b6000806040838503121561101b5761101a610f6b565b5b600061102985828601610fb9565b925050602061103a85828601610fef565b9150509250929050565b60008115159050919050565b61105981611044565b82525050565b60006020820190506110746000830184611050565b92915050565b61108381610fce565b82525050565b600060208201905061109e600083018461107a565b92915050565b6000806000606084860312156110bd576110bc610f6b565b5b60006110cb86828701610fb9565b93505060206110dc86828701610fb9565b92505060406110ed86828701610fef565b9150509250925092565b600060ff82169050919050565b61110d816110f7565b82525050565b60006020820190506111286000830184611104565b92915050565b60006020828403121561114457611143610f6b565b5b600061115284828501610fb9565b91505092915050565b61116481610f90565b82525050565b600060208201905061117f600083018461115b565b92915050565b6000806040838503121561119c5761119b610f6b565b5b60006111aa85828601610fb9565b92505060206111bb85828601610fb9565b9150509250929050565b7f4e487b7100000000000000000000000000000000000000000000000000000000600052602260045260246000fd5b6000600282049050600182168061120c57607f821691505b60208210810361121f5761121e6111c5565b5b50919050565b7f4e6f7420617574686f72697a6564000000000000000000000000000000000000600082015250565b600061125b600e83610ec4565b915061126682611225565b602082019050919050565b6000602082019050818103600083015261128a8161124e565b9050919050565b60006060820190506112a6600083018661115b565b6112b3602083018561107a565b6112c0604083018461107a565b949350505050565b7f4e487b7100000000000000000000000000000000000000000000000000000000600052601160045260246000fd5b600061130282610fce565b915061130d83610fce565b9250828201905080821115611325576113246112c8565b5b9291505056fea2646970667358221220ab954eefcd054807125a3330d5f1b240e15c0e09f8a67fdbb01136e3ccf3fd5e64736f6c634300081c0033",
  "linkReferences": {},
  "deployedLinkReferences": {}
}